:1000000002308A005C2A0000FF00030E8301A50075
:100010007F08A4000A08AF008A01A40E0408A60005
:100020002008A7002108A8002208A9002308AA0088
:1000300003170D080313AB0003170F080313AC00DD
:1000400003170C080313AD0003170E080313AE00CB
:10005000831383128C308400801E30288C1A512820
:10006000260884002708A0002808A1002908A2006B
:100070002A08A3002B0803178D0003132C0803176D
:100080008F0003132D0803178C0003132E0803178A
:100090008E0003132F088A00250E8300FF0E7F0EAB
:1000A00009008A11F72967308400000803196528C0
:1000B0000630A100A001A00B5B28A10B5A287B30C1
:1000C000A000A00B6128800B582808000B08E10055
:1000D0008B13831603178C170C1400000000831277
:1000E0000313E11B8B1703170C087F390319BC2876
:1000F0000313E10003170D080313E20003170F08B1
:100100000313E30061080C1E83289900620803179B
:100110008D000313630803178F0003130B08E4001B
:100120008B13831603178C170C1400000000831226
:100130000313E41B8B1703170C0D0E0D7F390319E6
:10014000BC280313E10003170D080313E200031793
:100150000F080313E30061080C1EAC289900620825
:1001600003178D000313630803178F008D0A03190B
:100170008F0A03136628031703130800831605105C
:10018000831205142130A000A00BC428831605108B
:100190008312051008006908083C0319D328EA00F7
:1001A000E80DEA0BD02883168616061386138312F1
:1001B000861383160612831206126908EA00E81FE6
:1001C0000613E81B0617E80D8617A10D861E2110E1
:1001D000861A21148613EA0BDF2806160800BE20B3
:1001E0002130E8000830E900CB200130E800083079
:1001F000E900CB20BE202230E8000830E900CB2007
:100200000130E8000830E900CB20BE202330E800B0
:100210000830E900CB200330E8000830E900CB20AB
:10022000BE202430E8000830E900CB20FF30E80091
:100230000830E900CB20BE202630E8000830E90075
:10024000CB200730E8000830E900CB20BE20313059
:10025000E8000830E900CB201030E8000830E90061
:10026000CB20BE202530E8000830E900CB2002304A
:10027000E8000830E900CB20BE202730E800083035
:10028000E900CB20BF30E8000830E900CB2083161E
:100290000510831205148316851083128510BE2065
:1002A0002030E8000830E900CB203A30E800083080
:1002B000E900CB20BE20A030E8000830E900CB20C8
:1002C000E60166080F3C031C702941306607840074
:1002D0000008E700E8000830E900CB20E60A6129C1
:1002E000BE203030E8000830E900CB206108E8008B
:1002F0000830E900CB206208E8000830E900CB2094
:100300006308E8000830E900CB206408E800083002
:10031000E900CB206508E8000830E900CB20BE20CA
:100320002A30E8000830E900CB206108E8000830F6
:10033000E900CB206208E8000830E900CB20630820
:10034000E8000830E900CB206408E8000830E90044
:10035000CB206508E8000830E900CB20BE208316DA
:100360008510831285145330A000A00BB529831685
:100370008510831285109630E7005320E701BE20D8
:10038000E8010830E900CB202108E70083160510BA
:1003900083120514E71ED0290130A100D229D229E9
:1003A0000030A100A1080319D9290130A100F629C4
:1003B000F629E701BE20E8010830E900CB2021083A
:1003C000E7008316051083120514671EEB29013020
:1003D000A100ED29ED290030A100A1080319F4299D
:1003E0000030A100F629F6290230A10008008C1E79
:1003F000F7291A08D7000530E70053208C1EFE2984
:100400001A08D800403003178D0002308F00031304
:1004100066200D300C1E0A2A99000A300C1E0E2A86
:10042000990057080C1E122A990058080C1E162A0B
:100430009900423003178D0002308F0003136620AD
:100440000D300C1E212A99000A300C1E252A990015
:100450005808C2005708E100E430E200E300E4007D
:10046000E500EF203230E70053205708E100E43088
:10047000E200E300E400E500EF208C128A1130284E
:10048000EF3520000A00831685108312851083162D
:100490000510831205148A11B22ABE20B0018B1BED
:1004A000B0178B13E230E8000830E900CB20B01B16
:1004B0008B17BE208A11B32A03081F3983008316C5
:1004C000861606138613831286138316061283126A
:1004D0000612813083169900A6309800903083125E
:1004E00098005110D901FF30DA0083161F149F14B1
:1004F0001F159F1107309C008312B101B201B30197
:10050000B401B501B601B701B801B901BA01BB0127
:10051000BC01BD01BE01BF01C001C101C201C301D7
:10052000C401C501C601C701C801C901CA01CB0187
:10053000CC01CD01CE01CF01D001D201DB015B089E
:100540000E3C031CAA2A41305B0784003130800036
:10055000DB0A9F2A233083168600803087008312AF
:10056000DA00432A4D2A83168C16C03083128B047E
:04057000B82A630042
:02400E00723FFF
:00000001FF
;PIC16F873A
;CRC=45E6  CREATED="15-ago.-20 20:50"
