:1000000001308A004929000083168510831285106B
:100010008316051083120514822983160510831296
:10002000051464000630F700F70B1428831605103A
:100030008312051008004E08083C03192328CF003E
:10004000CD0DCF0B20288316861606138613831238
:10005000861383160612831206124E08CF00CD1F98
:100060000613CD1B0617CD0D8617F80D861E7810CA
:10007000861A78148613CF0B2F28061608000D2039
:10008000E230CD000830CE001B200D2083294D30FA
:1000900084008313000803195E280130F800BF3084
:1000A000F7006400F70B5128F80B4F284A30F7008F
:1000B000F70B582800006400800B4D2808008316B9
:1000C00085108312851083160510831205102030C9
:1000D000CD000830CE001B203B30CD000830CE00D4
:1000E0001B200D200230CD0047202130CD000830EC
:1000F000CE001B200130CD000830CE001B200D208B
:100100002230CD000830CE001B200130CD00083059
:10011000CE001B200D202330CD000830CE001B2048
:100120000330CD000830CE001B200D202630CD003E
:100130000830CE001B200730CD000830CE001B2039
:100140000D203130CD000830CE001B201030CD0006
:100150000830CE001B200D202530CD000830CE0009
:100160001B200230CD000830CE001B200D202A308D
:10017000CD000830CE001B204708CD000830CE004F
:100180001B204808CD000830CE001B204908CD00B8
:100190000830CE001B204A08CD000830CE001B20BE
:1001A0004B08CD000830CE001B200D202030CD00A4
:1001B0000830CE001B203B30CD000830CE001B2085
:1001C0000D202730CD000830CE001B20CF30CD00D1
:1001D0000830CE001B2083160510831205148316E9
:1001E0008510831285148B29C7010D201730CD008F
:1001F0000830CE001B20CD010830CE001B2078082F
:10020000C7000D202730CD000830CE001B20CF3096
:10021000CD000830CE001B20831605108312051474
:10022000471C16290030F800182918290130F80059
:10023000942983160510831205106130CD00083013
:10024000CE001B20C70147080F3C031C3329203078
:10025000470784008313CD010830CE001B207808A7
:100260008000C70A23290D20E230CD000830CE00DF
:100270001B200D202730CD000830CE001B20CF30B2
:10028000CD000830CE001B20831605108312051404
:10029000A32903081F39830083168E1586160613BB
:1002A00086138312861383160612831206124010D9
:1002B00007309F008313A001A101A201A301A401A3
:1002C000A501A601A701A801A901AA01AB01AC01E2
:1002D000AD01AE01AF01B001B101B201B301B40192
:1002E000B501B601B701B801B901BA01BB01BC0142
:1002F000BD01BE01BF01C101C201233083168600CA
:10030000831204283F283130C700E430C800C900F8
:10031000CA00CB005F280A30CD00472083160614A0
:1003200083120618A329F428F8080319A3298316B1
:100330008611831286150230C7009630CD00472003
:10034000C70B9D2919292108413C031DAC2983169F
:10035000861183128615B0298316861183128611A1
:040360008E2963007F
:02400E00703F01
:00000001FF
;PIC16F628A
;CRC=48BB  CREATED="15-ago.-20 20:57"
